{
  "_format": "hh-sol-artifact-1",
  "contractName": "MusicPlayer",
  "sourceName": "contracts/MusicPlayer.sol",
  "abi": [
    {
      "inputs": [],
      "stateMutability": "nonpayable",
      "type": "constructor"
    },
    {
      "anonymous": false,
      "inputs": [
        {
          "indexed": false,
          "internalType": "uint256",
          "name": "trackId",
          "type": "uint256"
        },
        {
          "indexed": false,
          "internalType": "string",
          "name": "name",
          "type": "string"
        },
        {
          "indexed": false,
          "internalType": "string",
          "name": "audioCID",
          "type": "string"
        },
        {
          "indexed": false,
          "internalType": "uint256",
          "name": "price",
          "type": "uint256"
        },
        {
          "indexed": false,
          "internalType": "address",
          "name": "artist",
          "type": "address"
        }
      ],
      "name": "TrackAdded",
      "type": "event"
    },
    {
      "anonymous": false,
      "inputs": [
        {
          "indexed": false,
          "internalType": "uint256",
          "name": "trackId",
          "type": "uint256"
        },
        {
          "indexed": false,
          "internalType": "address",
          "name": "buyer",
          "type": "address"
        },
        {
          "indexed": false,
          "internalType": "uint256",
          "name": "price",
          "type": "uint256"
        }
      ],
      "name": "TrackPurchased",
      "type": "event"
    },
    {
      "inputs": [
        {
          "internalType": "string",
          "name": "_name",
          "type": "string"
        },
        {
          "internalType": "string",
          "name": "_audioCID",
          "type": "string"
        },
        {
          "internalType": "uint256",
          "name": "_price",
          "type": "uint256"
        }
      ],
      "name": "addTrack",
      "outputs": [],
      "stateMutability": "nonpayable",
      "type": "function"
    },
    {
      "inputs": [
        {
          "internalType": "uint256",
          "name": "_trackId",
          "type": "uint256"
        }
      ],
      "name": "buyTrack",
      "outputs": [],
      "stateMutability": "payable",
      "type": "function"
    },
    {
      "inputs": [
        {
          "internalType": "uint256",
          "name": "_trackId",
          "type": "uint256"
        },
        {
          "internalType": "address",
          "name": "_user",
          "type": "address"
        }
      ],
      "name": "canAccess",
      "outputs": [
        {
          "internalType": "bool",
          "name": "",
          "type": "bool"
        }
      ],
      "stateMutability": "view",
      "type": "function"
    },
    {
      "inputs": [],
      "name": "getAllTracks",
      "outputs": [
        {
          "components": [
            {
              "internalType": "string",
              "name": "name",
              "type": "string"
            },
            {
              "internalType": "string",
              "name": "audioCID",
              "type": "string"
            },
            {
              "internalType": "uint256",
              "name": "price",
              "type": "uint256"
            },
            {
              "internalType": "address",
              "name": "artist",
              "type": "address"
            }
          ],
          "internalType": "struct MusicPlayer.Track[]",
          "name": "",
          "type": "tuple[]"
        }
      ],
      "stateMutability": "view",
      "type": "function"
    },
    {
      "inputs": [
        {
          "internalType": "uint256",
          "name": "",
          "type": "uint256"
        },
        {
          "internalType": "address",
          "name": "",
          "type": "address"
        }
      ],
      "name": "hasPurchased",
      "outputs": [
        {
          "internalType": "bool",
          "name": "",
          "type": "bool"
        }
      ],
      "stateMutability": "view",
      "type": "function"
    },
    {
      "inputs": [],
      "name": "owner",
      "outputs": [
        {
          "internalType": "address",
          "name": "",
          "type": "address"
        }
      ],
      "stateMutability": "view",
      "type": "function"
    },
    {
      "inputs": [],
      "name": "trackCount",
      "outputs": [
        {
          "internalType": "uint256",
          "name": "",
          "type": "uint256"
        }
      ],
      "stateMutability": "view",
      "type": "function"
    },
    {
      "inputs": [
        {
          "internalType": "uint256",
          "name": "",
          "type": "uint256"
        }
      ],
      "name": "tracks",
      "outputs": [
        {
          "internalType": "string",
          "name": "name",
          "type": "string"
        },
        {
          "internalType": "string",
          "name": "audioCID",
          "type": "string"
        },
        {
          "internalType": "uint256",
          "name": "price",
          "type": "uint256"
        },
        {
          "internalType": "address",
          "name": "artist",
          "type": "address"
        }
      ],
      "stateMutability": "view",
      "type": "function"
    }
  ],
  "bytecode": "0x608060405234801561001057600080fd5b50336000806101000a81548173ffffffffffffffffffffffffffffffffffffffff021916908373ffffffffffffffffffffffffffffffffffffffff16021790555061178c806100606000396000f3fe60806040526004361061007b5760003560e01c8063ab35678c1161004e578063ab35678c14610130578063c0678a661461015b578063d5b2d1ed14610186578063dc9da2f8146101c35761007b565b8063888ec40e146100805780638da5cb5b146100a95780639a973fe5146100d4578063a2e34586146100f0575b600080fd5b34801561008c57600080fd5b506100a760048036038101906100a29190610cee565b610200565b005b3480156100b557600080fd5b506100be6103b8565b6040516100cb9190610dba565b60405180910390f35b6100ee60048036038101906100e99190610dd5565b6103dc565b005b3480156100fc57600080fd5b5061011760048036038101906101129190610dd5565b6106df565b6040516101279493929190610e90565b60405180910390f35b34801561013c57600080fd5b5061014561083f565b6040516101529190610ee3565b60405180910390f35b34801561016757600080fd5b50610170610845565b60405161017d9190611092565b60405180910390f35b34801561019257600080fd5b506101ad60048036038101906101a891906110e0565b610a89565b6040516101ba919061113b565b60405180910390f35b3480156101cf57600080fd5b506101ea60048036038101906101e591906110e0565b610af1565b6040516101f7919061113b565b60405180910390f35b60008054906101000a900473ffffffffffffffffffffffffffffffffffffffff1673ffffffffffffffffffffffffffffffffffffffff163373ffffffffffffffffffffffffffffffffffffffff161461028e576040517f08c379a0000000000000000000000000000000000000000000000000000000008152600401610285906111a2565b60405180910390fd5b60405180608001604052808481526020018381526020018281526020013373ffffffffffffffffffffffffffffffffffffffff1681525060016000600254815260200190815260200160002060008201518160000190816102ef91906113ce565b50602082015181600101908161030591906113ce565b506040820151816002015560608201518160030160006101000a81548173ffffffffffffffffffffffffffffffffffffffff021916908373ffffffffffffffffffffffffffffffffffffffff1602179055509050507f5c7f73c2156d8d5d90da6545437534037dfe58aaf938a1667975fa5a842aa34c600254848484336040516103939594939291906114a0565b60405180910390a1600260008154809291906103ae90611530565b9190505550505050565b60008054906101000a900473ffffffffffffffffffffffffffffffffffffffff1681565b6002548110610420576040517f08c379a0000000000000000000000000000000000000000000000000000000008152600401610417906115c4565b60405180910390fd5b6001600082815260200190815260200160002060020154341015610479576040517f08c379a000000000000000000000000000000000000000000000000000000000815260040161047090611630565b60405180910390fd5b6003600082815260200190815260200160002060003373ffffffffffffffffffffffffffffffffffffffff1673ffffffffffffffffffffffffffffffffffffffff16815260200190815260200160002060009054906101000a900460ff1615610517576040517f08c379a000000000000000000000000000000000000000000000000000000000815260040161050e9061169c565b60405180910390fd5b600060016000838152602001908152602001600020600201543461053b91906116bc565b9050600081111561058e573373ffffffffffffffffffffffffffffffffffffffff166108fc829081150290604051600060405180830381858888f1935050505015801561058c573d6000803e3d6000fd5b505b60016003600084815260200190815260200160002060003373ffffffffffffffffffffffffffffffffffffffff1673ffffffffffffffffffffffffffffffffffffffff16815260200190815260200160002060006101000a81548160ff0219169083151502179055506001600083815260200190815260200160002060030160009054906101000a900473ffffffffffffffffffffffffffffffffffffffff1673ffffffffffffffffffffffffffffffffffffffff166108fc60016000858152602001908152602001600020600201549081150290604051600060405180830381858888f19350505050158015610689573d6000803e3d6000fd5b507ffe3f9af2d0ba5be4687ca774df8206ec9cf7919bcf32bd9c76b051e5dfbbb5b4823360016000868152602001908152602001600020600201546040516106d3939291906116f0565b60405180910390a15050565b6001602052806000526040600020600091509050806000018054610702906111f1565b80601f016020809104026020016040519081016040528092919081815260200182805461072e906111f1565b801561077b5780601f106107505761010080835404028352916020019161077b565b820191906000526020600020905b81548152906001019060200180831161075e57829003601f168201915b505050505090806001018054610790906111f1565b80601f01602080910402602001604051908101604052809291908181526020018280546107bc906111f1565b80156108095780601f106107de57610100808354040283529160200191610809565b820191906000526020600020905b8154815290600101906020018083116107ec57829003601f168201915b5050505050908060020154908060030160009054906101000a900473ffffffffffffffffffffffffffffffffffffffff16905084565b60025481565b6060600060025467ffffffffffffffff81111561086557610864610b8d565b5b60405190808252806020026020018201604052801561089e57816020015b61088b610b20565b8152602001906001900390816108835790505b50905060005b600254811015610a8157600160008281526020019081526020016000206040518060800160405290816000820180546108dc906111f1565b80601f0160208091040260200160405190810160405280929190818152602001828054610908906111f1565b80156109555780601f1061092a57610100808354040283529160200191610955565b820191906000526020600020905b81548152906001019060200180831161093857829003601f168201915b5050505050815260200160018201805461096e906111f1565b80601f016020809104026020016040519081016040528092919081815260200182805461099a906111f1565b80156109e75780601f106109bc576101008083540402835291602001916109e7565b820191906000526020600020905b8154815290600101906020018083116109ca57829003601f168201915b50505050508152602001600282015481526020016003820160009054906101000a900473ffffffffffffffffffffffffffffffffffffffff1673ffffffffffffffffffffffffffffffffffffffff1673ffffffffffffffffffffffffffffffffffffffff1681525050828281518110610a6357610a62611727565b5b60200260200101819052508080610a7990611530565b9150506108a4565b508091505090565b60006003600084815260200190815260200160002060008373ffffffffffffffffffffffffffffffffffffffff1673ffffffffffffffffffffffffffffffffffffffff16815260200190815260200160002060009054906101000a900460ff16905092915050565b60036020528160005260406000206020528060005260406000206000915091509054906101000a900460ff1681565b6040518060800160405280606081526020016060815260200160008152602001600073ffffffffffffffffffffffffffffffffffffffff1681525090565b6000604051905090565b600080fd5b600080fd5b600080fd5b600080fd5b6000601f19601f8301169050919050565b7f4e487b7100000000000000000000000000000000000000000000000000000000600052604160045260246000fd5b610bc582610b7c565b810181811067ffffffffffffffff82111715610be457610be3610b8d565b5b80604052505050565b6000610bf7610b5e565b9050610c038282610bbc565b919050565b600067ffffffffffffffff821115610c2357610c22610b8d565b5b610c2c82610b7c565b9050602081019050919050565b82818337600083830152505050565b6000610c5b610c5684610c08565b610bed565b905082815260208101848484011115610c7757610c76610b77565b5b610c82848285610c39565b509392505050565b600082601f830112610c9f57610c9e610b72565b5b8135610caf848260208601610c48565b91505092915050565b6000819050919050565b610ccb81610cb8565b8114610cd657600080fd5b50565b600081359050610ce881610cc2565b92915050565b600080600060608486031215610d0757610d06610b68565b5b600084013567ffffffffffffffff811115610d2557610d24610b6d565b5b610d3186828701610c8a565b935050602084013567ffffffffffffffff811115610d5257610d51610b6d565b5b610d5e86828701610c8a565b9250506040610d6f86828701610cd9565b9150509250925092565b600073ffffffffffffffffffffffffffffffffffffffff82169050919050565b6000610da482610d79565b9050919050565b610db481610d99565b82525050565b6000602082019050610dcf6000830184610dab565b92915050565b600060208284031215610deb57610dea610b68565b5b6000610df984828501610cd9565b91505092915050565b600081519050919050565b600082825260208201905092915050565b60005b83811015610e3c578082015181840152602081019050610e21565b60008484015250505050565b6000610e5382610e02565b610e5d8185610e0d565b9350610e6d818560208601610e1e565b610e7681610b7c565b840191505092915050565b610e8a81610cb8565b82525050565b60006080820190508181036000830152610eaa8187610e48565b90508181036020830152610ebe8186610e48565b9050610ecd6040830185610e81565b610eda6060830184610dab565b95945050505050565b6000602082019050610ef86000830184610e81565b92915050565b600081519050919050565b600082825260208201905092915050565b6000819050602082019050919050565b600082825260208201905092915050565b6000610f4682610e02565b610f508185610f2a565b9350610f60818560208601610e1e565b610f6981610b7c565b840191505092915050565b610f7d81610cb8565b82525050565b610f8c81610d99565b82525050565b60006080830160008301518482036000860152610faf8282610f3b565b91505060208301518482036020860152610fc98282610f3b565b9150506040830151610fde6040860182610f74565b506060830151610ff16060860182610f83565b508091505092915050565b60006110088383610f92565b905092915050565b6000602082019050919050565b600061102882610efe565b6110328185610f09565b93508360208202850161104485610f1a565b8060005b8581101561108057848403895281516110618582610ffc565b945061106c83611010565b925060208a01995050600181019050611048565b50829750879550505050505092915050565b600060208201905081810360008301526110ac818461101d565b905092915050565b6110bd81610d99565b81146110c857600080fd5b50565b6000813590506110da816110b4565b92915050565b600080604083850312156110f7576110f6610b68565b5b600061110585828601610cd9565b9250506020611116858286016110cb565b9150509250929050565b60008115159050919050565b61113581611120565b82525050565b6000602082019050611150600083018461112c565b92915050565b7f4f6e6c7920746865206f776e65722063616e20616464206120747261636b0000600082015250565b600061118c601e83610e0d565b915061119782611156565b602082019050919050565b600060208201905081810360008301526111bb8161117f565b9050919050565b7f4e487b7100000000000000000000000000000000000000000000000000000000600052602260045260246000fd5b6000600282049050600182168061120957607f821691505b60208210810361121c5761121b6111c2565b5b50919050565b60008190508160005260206000209050919050565b60006020601f8301049050919050565b600082821b905092915050565b6000600883026112847fffffffffffffffffffffffffffffffffffffffffffffffffffffffffffffffff82611247565b61128e8683611247565b95508019841693508086168417925050509392505050565b6000819050919050565b60006112cb6112c66112c184610cb8565b6112a6565b610cb8565b9050919050565b6000819050919050565b6112e5836112b0565b6112f96112f1826112d2565b848454611254565b825550505050565b600090565b61130e611301565b6113198184846112dc565b505050565b5b8181101561133d57611332600082611306565b60018101905061131f565b5050565b601f8211156113825761135381611222565b61135c84611237565b8101602085101561136b578190505b61137f61137785611237565b83018261131e565b50505b505050565b600082821c905092915050565b60006113a560001984600802611387565b1980831691505092915050565b60006113be8383611394565b9150826002028217905092915050565b6113d782610e02565b67ffffffffffffffff8111156113f0576113ef610b8d565b5b6113fa82546111f1565b611405828285611341565b600060209050601f8311600181146114385760008415611426578287015190505b61143085826113b2565b865550611498565b601f19841661144686611222565b60005b8281101561146e57848901518255600182019150602085019450602081019050611449565b8683101561148b5784890151611487601f891682611394565b8355505b6001600288020188555050505b505050505050565b600060a0820190506114b56000830188610e81565b81810360208301526114c78187610e48565b905081810360408301526114db8186610e48565b90506114ea6060830185610e81565b6114f76080830184610dab565b9695505050505050565b7f4e487b7100000000000000000000000000000000000000000000000000000000600052601160045260246000fd5b600061153b82610cb8565b91507fffffffffffffffffffffffffffffffffffffffffffffffffffffffffffffffff820361156d5761156c611501565b5b600182019050919050565b7f496e76616c696420747261636b20494400000000000000000000000000000000600082015250565b60006115ae601083610e0d565b91506115b982611578565b602082019050919050565b600060208201905081810360008301526115dd816115a1565b9050919050565b7f4e6f7420656e6f75676820455448000000000000000000000000000000000000600082015250565b600061161a600e83610e0d565b9150611625826115e4565b602082019050919050565b600060208201905081810360008301526116498161160d565b9050919050565b7f416c726561647920707572636861736564000000000000000000000000000000600082015250565b6000611686601183610e0d565b915061169182611650565b602082019050919050565b600060208201905081810360008301526116b581611679565b9050919050565b60006116c782610cb8565b91506116d283610cb8565b92508282039050818111156116ea576116e9611501565b5b92915050565b60006060820190506117056000830186610e81565b6117126020830185610dab565b61171f6040830184610e81565b949350505050565b7f4e487b7100000000000000000000000000000000000000000000000000000000600052603260045260246000fdfea264697066735822122047e39263488a455460dbf20bacffee515ea3fd923ce7c4d4ab1addeaa6816c4b64736f6c63430008120033",
  "linkReferences": {},
  "deployedLinkReferences": {}
}